:020000040800F2
:100000001008002001010008BB0F0008E30E0008E3
:10001000B90F000835040008EF10000800000000C8
:10002000000000000000000000000000991000081F
:100030003704000800000000BD0F00089B100008F6
:100040001B0100081B0100081B0100081B01000820
:100050001B0100081B0100081B0100081B01000810
:100060001B0100081B0100081B0100081B01000800
:100070001B0100081B0100081B0100081B010008F0
:100080001B0100081B0100081B0100081B010008E0
:100090001B0100081B0100081B0100081B010008D0
:1000A0001B0100081B0100081B0100081B010008C0
:1000B0001B0100081B0100081B0100081B010008B0
:1000C0001B0100081B0100081B0100081B010008A0
:1000D0001B0100081B0100081B0100081B01000890
:1000E0001B0100081B0100081B010008DFF80CD0F1
:1000F00000F02AF8004800473111000810080020DD
:100100000648804706480047FEE7FEE7FEE7FEE7B1
:10011000FEE7FEE7FEE7FEE7FEE7FEE7ED1000087C
:10012000ED000008D2B201E000F8012B491EFBD21D
:1001300070470022F6E710B513460A4604461946F2
:10014000FFF7F0FF204610BD064C074D06E0E068C3
:1001500040F0010394E8070098471034AC42F6D30E
:10016000FFF7C8FF7C1100089C11000870B5012240
:10017000064D54022146284600F068FA21462846DA
:10018000BDE87040002200F061BA000000080140A4
:1001900010B5364C3648344AC4E900203548A060D2
:1001A00047F67F70E06002202061002060612083BC
:1001B000E0612062C4E90A002063C4E90D002E4911
:1001C000901CC4E9100100230421184600F0D4F863
:1001D000002304210120626800F0CEF800230421EE
:1001E0000220A26800F0C8F8002304210320E2687E
:1001F00000F0C2F8042100230846226900F0BCF890
:10020000002304210720626900F0B6F8228B002346
:100210000221082000F0B0F8002304210920E2693F
:1002200000F0AAF8002304210A20226A00F0A4F8B2
:10023000D4E90A2308210B2000F09EF8D4E90C230E
:1002400008210C2000F098F8002304210D20A26B57
:1002500000F092F8D4E9102308210E2000F08CF869
:10026000BDE81040FFF782BF020000C088030020F5
:100270002008C80000C03F1FFF2D000870B54FF4D4
:1002800000411D4C4D108E10072833D2DFE800F0DE
:100290000406081020262C0000221AE000221EE08E
:1002A000002222E02946204600F0D0F9002209E091
:1002B0000022204600F0CAF901222946204600F01B
:1002C000C5F9012231462046BDE8704000F0BEB9B4
:1002D0000122204600F0BAF90022E3E7012220467D
:1002E00000F0B4F90022E8E70122204600F0AEF960
:1002F0000122D7E70122DCE7000C014070B51C4E5B
:1003000000241A4A234604212046326000F034F8C3
:10031000FFF72CFF0020FFF7B1FF0020411EA6F5DC
:10032000487500BF45F82010401C6428FADB02E045
:1003300045F82040401CC828FADB0024002355F86B
:1003400024200421162000F017F8FFF70FFF641C8B
:10035000C82CF3DB074A002304211846326000F062
:100360000BF8BDE87040FFF701BF0000020000403D
:1003700088030020020000C02DE9FE43DFF8AC80B6
:1003800015460F4606461C4600221021404600F046
:100390005DF9280A40EA0460E9B2C0B2022F0DD02C
:1003A0002B0C43EA04432D0EDAB245EA0425EBB2E6
:1003B000250E042F0BD0082F19D11FE08DF8021045
:1003C0008DF801000A238DF8006003220BE08DF800
:1003D00003008DF802208DF801300A238DF80410F7
:1003E0008DF8006005226946114800F0B3FC012237
:1003F0001021404600F02AF9BDE8FE838DF8070081
:10040000200A8DF803008DF80620200C8DF80530A9
:100410008DF802008DF801500A238DF808108DF830
:1004200004408DF800600922DDE70000000801406B
:1004300010000020FEE7704770B5044600F00CF98C
:100440000546601C02D004480078044400F004F91A
:10045000401BA042FAD370BD000000202DE9F84FE8
:10046000DFF8B891002409F1040A0AF1040B2346CD
:100470000F270BF1040EC9E00125A5402A40AA422E
:100480007DD1674ED1F804C0ACEB0608B44532D03C
:1004900014DCBCF1030F3AD009DCBCF1000F2AD008
:1004A000BCF1010F1CD0BCF1020F31D11DE0BCF139
:1004B000110F17D0BCF1120F2AD119E0B8F5881F1F
:1004C00019D006DCB8F5803F15D0B8F5801F1FD1D4
:1004D00011E0B8F5001F0ED0B8F5041F18D10AE0DE
:1004E000CB6815E0CB681B1D12E0CB6808330FE02A
:1004F000CB680C330CE08B682BB1012B4FF0080359
:1005000003D0456104E0042302E0056100E000231C
:10051000FF2A01D8064601E000F104064FEA8405EF
:1005200001D9A5F12005D6F8008007FA05FC28EAD4
:100530000C0803FA05F548EA0508C6F800804D687E
:10054000ED0062D5374DAE6946F00106AE61AD698A
:1005500024F0030605F001050095334D06EB050C6C
:10056000DCF80850A607360F07FA06F825EA080552
:10057000DFF8B880404503D14FF0000817E044E0B1
:10058000DFF8AC80404502D14FF001080FE0DFF802
:10059000A480404502D14FF0020808E0DFF89880BF
:1005A000404502D14FF0030801E04FF0040808FA7B
:1005B00006F848EA0508CCF808804D68D9F80060CC
:1005C000ED034D4601D5164300E096432E604D687D
:1005D000DAF80060AD03554601D5164300E09643B6
:1005E0002E604D68DBF80060ED025D4601D51643D4
:1005F00000E096432E604D68DEF80060AD0275465F
:1006000001D5164300E096432E60641C0D682A460F
:10061000E5407FF431AFBDE8F88F000000040140F1
:1006200000001110001002400000014000080140CD
:10063000000C01400010014000140140C26821EA92
:1006400002030A4043EA0241016170470AB10161B5
:1006500070470904FBE7000001488068704700000C
:1006600000000020024881680278114481607047D0
:1006700000000020074810B5016841F0100101603A
:10068000032000F067F8002000F006F800F024F8DE
:10069000002010BD0020024070B50D4D04464FF4FF
:1006A0007A712878B1FBF0F00A490968B1FBF0F0E3
:1006B00000F003FC48B9102C07D200222146501E3E
:1006C00000F028F800206C6070BD012070BD0000B3
:1006D000000000200C0000200C4808B5816941F0A2
:1006E00001018161816901F001010091C16941F05D
:1006F0008051C161C06900F0805000900448416899
:1007000021F0E06141F00071416008BD001002403D
:1007100000000140F0B40E4B1B680C46C3F30223EB
:10072000C3F10705042D00D90425191D072901D29D
:10073000002300E0DB1E012606FA05F1491E2140D8
:1007400099409E40761E16403143F0BC00F0D0BC6C
:100750000CED00E0064900F0070208684FF6FF03C1
:10076000184040EA0220034A104308607047000026
:100770000CED00E00000FA052DE9F0470F460500FA
:1007800061D0434E306800F00700B84209D23068AB
:1007900020F0070038433060306800F00700B842AE
:1007A00051D128683B4C810712D5400703D56068BA
:1007B00040F4E06060602878000703D5606840F48A
:1007C000605060606068A96820F0F00008436060D5
:1007D0002878C00728D06868012810D0216802282E
:1007E00010D0890700292EDA616821F00301014346
:1007F0006160FFF731FF804641F288390DE02168E2
:100800008903EFE78901EDE7FFF726FFA0EB080179
:10081000494502D90320BDE8F0876068696800F0A7
:100820000C00B0EB810FEFD1306800F00700B84248
:100830000BD9306820F0070038433060306800F092
:100840000700B84201D00120E5E72878400705D528
:100850006068E96820F4E060084360602878000779
:1008600006D56068296920F4605040EAC1006060E4
:1008700000F018F86168084AC1F30311515CC840E0
:100880000649086006480068FFF706FF0020C2E737
:1008900000200240001002406C1100080C000020F3
:1008A0000400002012A185B00FC98DE80F0014A02C
:1008B000144A006804905168134801F00C03042B9B
:1008C00010D0082B0ED1C1F38343C9031DF80300D8
:1008D0000AD5516804AAC1F34041515C0A4A504309
:1008E000B0FBF1F005B0704708494843FAE7000053
:1008F00002030405060708090A0B0C0D0E0F101061
:10090000010200000010024000127A0000093D00C0
:100910002DE9F84F040070D02078C04DC00749D0B1
:100920006868C0F38100012807D06868C0F38100BF
:10093000022809D16868C00306D52868800339D524
:1009400060680028E7D035E06068B0F5803F0BD0E4
:1009500010B1B0F5A02F11D0286820F480302860A5
:10096000286820F4802002E0286840F48030286065
:10097000606890B1FFF770FE06460AE0286840F410
:1009800080202860F0E700BFFFF766FE801B642828
:1009900073D828688003F7D50CE0FFF75DFE0646A4
:1009A00005E000BFFFF758FE801B6428F0D82868D8
:1009B0008003F7D420789A4E80074FF001094FF05A
:1009C000000839D5686810F00C0F07D06868C0F3CC
:1009D0008100022809D16868C00306D4286880070E
:1009E00014D52069012808D110E02069B0B1C6F8FB
:1009F0000090FFF731FE074605E00AE1FFF72CFE05
:100A0000C01B0228C4D828688007F7D52868616908
:100A100020F0F80040EAC10028600DE0C6F8008030
:100A2000FFF71AFE074604E0FFF716FEC01B022878
:100A300023D828688007F7D4207800072CD5794878
:100A4000A169D9B1C0F80090FFF706FE074604E09F
:100A5000FFF702FEC01B02280FD8686A8007F7D58F
:100A600071484FF4FA510068B0FBF1F0009000BFFC
:100A70000098411E0091FAD20EE080E0C0F800809C
:100A8000FFF7EAFD074604E0FFF7E6FDC01B02287A
:100A900075D8686A8007F7D42078400760D5E86980
:100AA0000027C00008D4E86940F08050E861E86998
:100AB000012700F0805000905C480168C90513D4FC
:100AC0000168834641F480710160FFF7C5FD8246ED
:100AD00006E000BFFFF7C0FDA0EB0A0064284ED877
:100AE000DBF80000C005F5D5E06801280AD008B1A0
:100AF000052813D0286A20F001002862286A20F017
:100B0000040002E0286A40F001002862E06841F237
:100B1000883B98B1FFF7A0FD82460BE0286A40F0C1
:100B200004002862EEE700BFFFF796FDA0EB0A0184
:100B300059455AD8286A8007F6D50CE0FFF78CFD96
:100B4000824605E0FFF788FDA0EB0A0159454CD825
:100B5000286A8007F6D41FB1E86920F08050E86168
:100B6000E06988B36968C1F38101022944D0022891
:100B7000C6F8608004D0FFF76FFD044638E034E02B
:100B8000FFF76AFD074604E0FFF766FDC01B022879
:100B90002BD828688001F7D4206AB0F5803F05D1B2
:100BA0006868A16820F4003008436860D4E908014F
:100BB0000843696821F4741108436860C6F86090BE
:100BC000FFF74AFD044606E025E000BFFFF744FDBD
:100BD000001B022809D828688001F7D51BE000BF58
:100BE000FFF73AFD001B022802D90320BDE8F88F69
:100BF00028688001F4D40EE00128F7D06868226AE2
:100C000000F48031914204D1616A00F4701088428E
:100C100001D00120EAE70020E8E7000000100240D0
:100C200000004242800442420C000020007000405C
:100C300070B5040009D0606A002540B12561656186
:100C4000A56294F8510040B10CE0012070BD6068CD
:100C5000B0F5827FF4D0E561F2E784F85050204689
:100C600000F040F8022084F851002068016821F06B
:100C700040010160A088218900F4827001F40441E0
:100C80000843A18901F400610843217C01F00201BD
:100C90000843217D01F001010843218B01F400711B
:100CA0000843217F01F03801084394F8201001F037
:100CB00080010843218D01F4005108432168086038
:100CC000A069042101EA1040216848602068C169D8
:100CD00021F40061C1616565012084F851000020A4
:100CE00070BD000030B585B00024009401940294DA
:100CF000039400681449884223D11448816941F45F
:100D000080518161816901F480510491816941F0D0
:100D10000401816180690E4D00F004000490A02060
:100D20000090022001900320039069462846FFF7B7
:100D300095FB4020CDE90004694628460294FFF760
:100D40008DFB05B030BD00000030014000100240B6
:100D5000000801402DE9F84F044690F850000027A4
:100D60001D461646894601280DD04FF0010B84F828
:100D700050B0FFF771FC804694F85100BA46012844
:100D800004D0022793E00220BDE8F88FB9F1000FEC
:100D900073D0002E71D0032084F85100C4F854A001
:100DA000C4F83090A686E686C4F838A0A4F83CA023
:100DB000A4F83EA0C4F844A0C4F840A0A068B0F5D0
:100DC000004F09D12068016821F0400101602068CE
:100DD000016841F48041016020680168490603D43C
:100DE000016841F040010160E068B0F5006F6068A3
:100DF00003D030B3012E24D041E008B1012E1CD124
:100E0000206B21680088C86006E020688168890737
:100E100009D5216B0988C160206B801C2063E08E9E
:100E2000401EE08609E0FFF717FCA0EB0800A8428F
:100E300002D3681C01D031E07DB3E08E0028E4D1FC
:100E400020E0206B21680078087306E02068816844
:100E5000890709D5216B09780173206B401C206339
:100E6000E08E401EE0860AE0FFF7F6FBA0EB0800EC
:100E7000A84203D3681C02D010E017E06DB1E08EE9
:100E80000028E3D142462946204600F098F808B1F0
:100E900020206065A06818B106E0FFE7032706E0A0
:100EA0002068C16880680090606D00B1012784F8F7
:100EB00051B084F850A0384666E710B5401EB0F136
:100EC000807F01D3012010BD4FF0E02460610F212D
:100ED000601700F00DF90020A061072020610020BC
:100EE00010BDFEE72DE9F04385B0002421480094B1
:100EF000019402940394816941F020018161816928
:100F000001F020010491816941F00401816181694E
:100F100001F004010491816941F008018161806957
:100F2000DFF8548000F008004FF44475049000226C
:100F300029464046FFF78AFBDFF840904FF47047A0
:100F4000002239464846FFF781FB0095022601251D
:100F50000396CDE9015469464046FFF77FFA0097B2
:100F60000396CDE9015469464846FFF777FA05B084
:100F7000BDE8F0830010024000080140000C014071
:100F80000C480B494FF4007201604FF482714160CC
:100F900000218160C1600161C0E905120822C0E939
:100FA0000721416281620A21C162FFF741BE000050
:100FB0000030014010000020FEE77047704738B550
:100FC0000B46009204460022802100F009F8002818
:100FD00004D0606D40F020006065032038BD000043
:100FE0002DE9F8431E46914688460446089DFFF7C2
:100FF00033FB401B351AFFF72FFB074625480068D7
:10100000C0F3CB30684338E0701C37D0FFF724FBC7
:10101000C01BA84203D215B1009860B32CE0206831
:10102000416821F0E00141606068B0F5827F0BD13A
:10103000A068B0F5004F02D0B0F5806F04D12068F1
:10104000016821F040010160A06AB0F5005F09D19C
:101050002068016821F4005101602068016841F4B2
:1010600000510160012084F85100002084F85000F4
:101070000320BDE8F8830025401E009020688168A9
:1010800038EA010004D000214945BDD10020F0E735
:101090000121F9E70C0000207047FFF7E3BA30B5F3
:1010A0008FB028216846FFF744F814210AA8FFF7FB
:1010B00040F801210804CDE9001000240294022523
:1010C0000491CDE907504FF4E01009906846FFF70E
:1010D0001FFC0F20CDE90A056802CDE90C40022172
:1010E0000AA80E94FFF748FB0FB030BD7047FEE72B
:1010F0000907090E002804DB00F1E02080F8001445
:10110000704700F00F0000F1E02080F8141D7047D8
:1011100002E008C8121F08C1002AFAD170477047C0
:10112000002001E001C1121F002AFBD1704700001E
:10113000FFF7A0FAFFF7B3FFFFF7D4FEFFF720FF9A
:101140004FF4FA70FFF778F9FFF722F8FFF7D6F8B7
:10115000054D4FF4805421462846FFF76FFA64206E
:10116000FFF76AF9F7E70000000C014000000000FB
:101170000000000001020304060708099C11000892
:10118000000000201000000010110008AC11000841
:1011900010000020000800002011000801000000DD
:0C11A00010000000000000000024F4001B
:04000005080000ED02
:00000001FF
